:100000008FC10000AAC10000A8C10000A6C1000065
:10001000A4C10000A2C10000A0C100009EC1000058
:100020009CC100009AC10000C7C6000096C1000034
:1000300094C1000092C1000090C100008EC1000078
:100040008CC100008AC1000088C1000086C1000088
:1000500084C1000082C1000080C100000C94A50B87
:100060007CC100007AC1000078C1000076C10000A8
:1000700074C1000072C1000070C100006EC10000B8
:100080006CC100006AC1000068C1000066C10000C8
:1000900064C1000062C1000060C100005EC10000D8
:1000A0005CC100005AC1000058C1000009023E00B6
:1000B000020100C03209040000010202010005240F
:1000C000000110042402060524060001070581032F
:1000D0000800FF09040100020A00000007050302EE
:1000E000100000070582021000001C03420075008A
:1000F00073004E0069006E006A0061000000180382
:10010000530074006F006E00650079004C006100C0
:1001100062007300000004030904120110010000D2
:100120000008EB0344200000010200014932432093
:100130004F50454E004932432053544F5020434FB7
:100140004E444954494F4E004E4F004932432052CD
:100150004541443A20004932432053544F502043F4
:100160004F4E444954494F4E004E4F00594553009D
:1001700020474F542041434B3A20004932432057F7
:10018000524954453A20004932432053544F50209D
:10019000434F4E444954494F4E004F4B004E41434C
:1001A0004B004E4F005945530020474F54204143C8
:1001B0004B3A20004932432057524954453A2000D7
:1001C000594553004E4F0020474F542041434B3A6E
:1001D00020004932432057524954453A20004932C1
:1001E0004320535441525420434F4E444954494FA5
:1001F0004E004E4F0049324320524541443A2000C0
:1002000049324320535441525420434F4E444954A1
:10021000494F4E004E41434B00435320454E41420F
:100220004C45440043532044495341424C4544000B
:1002300057524954453A2000524541443A20005211
:100240004541443A200057524954453A20003E2047
:10025000002A002A20427573206E696E6A6120763A
:1002600065722E203131303931394031353A3033F1
:100270002D726F6F74002A00BF02BB02B402AD0280
:10028000A6028D0286020240FF804080FF08108097
:10029000D910D9FF10FFD910D9801080271027005E
:1002A00010002710278002FF000010FFFF0220002F
:1002B0000020FFFF02FF0000FFFFFF01FFFFFF0123
:1002C000FF00003E20004572726F7200426164437D
:1002D0006D64003131303931394031353A30332DA8
:1002E000726F6F74001803590F13032F0F0F03FE63
:1002F0000E0903FB0E0503F60E0103F10E000000CC
:100300000069326300737069007265736574006C14
:1003100065640068656C700076657273696F6E0065
:1003200011241FBECFEFDAE0DEBFCDBF11E0A0E0A9
:10033000B1E0E4ECF0E202C005900D92AA33B107FF
:10034000D9F721E0AAE3B1E001C01D92AF3AB207AC
:10035000E1F70E94EA090C94561052CECF93C82FB1
:100360000E94FB0A6C2F80E091E02BD180E091E0AD
:100370007AD1CF91E1C5089580933A01882389F01D
:100380008EEA91E00E94060C8BE19CE090933E0186
:1003900080933D018BEF9BE090933C0180933B0168
:1003A000089590E080E00E94060C10923E011092A9
:1003B0003D0110923C0110923B01089590E080E0D5
:1003C0000C94060CCF9380913A01C1E181110FC0CA
:1003D000CF91089509958823B9F080E091E08DD1FF
:1003E000E0913D01F0913E01309771F00995C150C7
:1003F00059F080E091E059D1892B31F0E0913B0137
:10040000F0913C01309731F780E091E0CF912BC122
:100410009C01DA01832F99278230910529F18330DD
:10042000910549F0019791F482E190E02AE131E0F1
:100430002D933C930895C9019927213061F08230B2
:10044000910579F0E6E1F1E0892B39F090E080E068
:1004500030E020E0EDCFEEEFF0E0849190E09F01FE
:10046000E7CFEAEEF0E0F9CF8EE390E02CEA30E05F
:10047000DFCF80E091E06AC080E091E001C00895A4
:10048000CF93DF93EC018091E80083FF12C02881B5
:100490008091AB019091AC012817190651F480911D
:1004A000A801823209F440C038F4803249F1813227
:1004B00099F0DF91CF9108958332D9F78091A70108
:1004C0008132B9F78091E800877F8093E8006091DE
:1004D000A901CE01D4DF37C08091A701813A49F745
:1004E0008091E800877F8093E80067E070E0CE01AC
:1004F0000F96ECD28091E8008B778093E800D9CFFB
:100500008091A7018132A9F68091E800877F8093CE
:10051000E80067E070E0CE010F9691D3CE01AFDF27
:100520008091E8008E77E9CF8091A701813209F0B0
:10053000C0CF8091E800877F8093E8008091A90177
:100540008D87CE019CDFDF91CF9171C21F93CF9336
:10055000DF93EC01FC013D9689E0DF011D928A9555
:10056000E9F78C8112E0811116E08A819B8127D204
:10057000482F412B61E8898130D28823E9F08885B2
:1005800012E0811116E08E819F8119D2482F412BF4
:1005900060E88D8122D2882379F08C8512E0811168
:1005A00016E08A859B850BD2482F412B61EC89850B
:1005B000DF91CF911F9111C280E0DF91CF911F9108
:1005C0000895CF93FC01C62F8091A6018430E9F4F1
:1005D00087859089A189B289892B8A2B8B2BA9F0D9
:1005E00081818093E9008091E80085FF05C0C09378
:1005F000F10080E0CF9108958091E8008E7780939C
:10060000E80034D2882399F3F5CF82E0F3CFFC01E0
:100610008091A601843029F587859089A189B289C6
:10062000892B8A2B8B2BE9F081818093E9009091B3
:10063000F3008091F200892B11F480E008959091ED
:10064000E8008091E8008E778093E80095FDF5CF73
:100650000DD2811107C09091E8009E779093E80039
:10066000089582E00895FC018091A6018430E1F4B0
:1006700087859089A189B289892B8A2B8B2BA1F040
:1006800085818093E9008091E80082FF0BC0909102
:10069000F3008091F200892B29F48091E8008B7798
:1006A0008093E800CF01B3CF0895FC018091A601AB
:1006B000843019F090E080E0089587859089A189C1
:1006C000B289892B8A2B8B2BA9F385818093E90032
:1006D0008091E80082FFEECF9091F3008091F200CC
:1006E000009731F42091E8002B772093E8000895DB
:1006F0009091F3008091F2000895FC018091A60191
:100700008430D1F487859089A189B289892B8A2B7D
:100710008B2B91F085818093E9008091F10090917D
:10072000F3002091F200392F232B39F49091E80047
:100730009B779093E800089580E00895CF93C82FA9
:1007400080914001813009F439DE809140018111AE
:1007500009D3C0934001C13009F40DDECF91F8C236
:1007600080913F01882329F080914001813009F474
:1007700029DEE2C381E080933F0180914001813016
:1007800009F4FACD089510923F0180914001813023
:1007900011F480E0F1CD089580914001813009F499
:1007A00068CE089580914001813009F465CE0895A6
:1007B00020914001213009F42BCE90E080E0089593
:1007C0001F93CF93DF9300D0CDB7DEB787EA91E0D8
:1007D000FC0101962091F100208321E08F3A9207DD
:1007E000B9F78091A7019091A8019A3008F0D1C083
:1007F000E92FF0E0E85AFF4E0C941810803881F091
:10080000823809F0C6C08091AB0187708093E900FF
:100810008091EB0085FB882780F91092E90006C0E3
:100820008091A2019091A301911182609091E800C2
:10083000977F9093E8008093F1001092F1008091EF
:10084000E8008E77B8C0882309F4A5C0823009F08B
:10085000A0C08091A9018111A9C08091AB018770CE
:1008600009F43EC08093E9002091EB0020FF38C0DE
:10087000933031F48091EB0080628093EB0096C05E
:100880009091EB0090619093EB0021E030E001C08B
:10089000220F8A95EAF72093EA001092EA008091ED
:1008A000EB008860EACF811174C01091A90180919A
:1008B000E800877F8093E800BAD08091E80080FF4D
:1008C0000BC0812F8F7792E009F093E09093A601FF
:1008D00080688093E30004C08091A6018111EDCF70
:1008E0008091E80083FF0AC08091EB0080628093D2
:1008F000EB008091E800877F8093E8000F900F90D5
:10090000DF91CF911F9108958058823008F041C047
:10091000AE014F5F5F4F6091AB018091A901909153
:10092000AA0146DFBC01892BD9F28091E800877FBC
:100930008093E80089819A8125D18091E8008B77A6
:100940008093E800CDCF803821F58091E800877F43
:100950008093E8008091A4018093F10070CF811111
:1009600018C09091A901923008F0BACF8091E800A8
:10097000877F8093E8009093A40159D08091A401CF
:10098000811105C083E08093A60106DFA9CF84E032
:10099000FACF08DFA5CF8091A901813009F0A0CF5F
:1009A00081E0933009F080E08093A3011092E90088
:1009B0008091E800877F8093E80039D091CFAC0127
:1009C00028E030E080E02417350718F08295807F1A
:1009D00008958F5F220F331FF6CF8093E900EBEE6F
:1009E000F0E0808181608083EDEEF0E01082609322
:1009F000EC0040838091EE00881F8827881F0895AF
:100A00001092F40080E08093E9001092F0001092C0
:100A1000E8009091ED009D7F9093ED009091EB00A8
:100A20009E7F9093EB008F5F873069F708958091E8
:100A3000A70187FF13C08091E80082FF06C0809164
:100A4000E8008B778093E80004C08091A6018111B3
:100A5000F2CF08958091A6018823D9F38091E80010
:100A600080FFF8CF8091E8008E77ECCF95E620915B
:100A7000EC00822F817020FF06C08091E80080FF8B
:100A800006C080E008952091E80022FD1EC08091FC
:100A9000A6018823A9F08091A601853099F0809164
:100AA000EB0085FD11C08091E10082FFE0CF8091D5
:100AB000E1008B7F8093E1009150C9F684E00895B6
:100AC00082E0089583E0089581E008959B014091BC
:100AD000AD015091AE014617570798F0672B29F4E6
:100AE0004091E8004E774093E80050E02115310531
:100AF00051F4511108C08091E80082FF34C080E0B9
:100B000008959A01F2CF4091E80043FD37C040912B
:100B1000E80042FDF0CF4091A601442389F14091C5
:100B2000A601453049F14091E80040FFDFCF4091F8
:100B3000F3004091F2002115310511F0483050F0DA
:100B400051E0483009F050E04091E8004E77409382
:100B5000E800CCCFFC0181918093F1002150310954
:100B60004F5FCF01E8CF8091A601882349F08091A3
:100B7000A601853009F0BFCF83E0089581E0089594
:100B800082E008959B014091AD015091AE0146175E
:100B9000570798F0672B29F44091E8004E7740936F
:100BA000E80050E02115310551F4511108C0809141
:100BB000E80082FF35C080E008959A01F2CF4091AD
:100BC000E80043FD38C04091E80042FDF0CF40917D
:100BD000A601442391F14091A601453051F1409185
:100BE000E80040FFDFCF4091F3004091F200FC01AC
:100BF000CF012115310511F0483050F051E0483057
:100C000009F050E04091E8004E774093E800CACFE9
:100C100084918093F100215031094F5F3196E8CFE4
:100C20008091A601882349F08091A601853009F0C2
:100C3000BECF83E0089581E0089582E008959B018E
:100C4000672B29F44091E8004B774093E800211589
:100C5000310531F48091E80080FF21C080E00895E3
:100C60004091E80043FD25C04091A601442319F1BD
:100C70004091A6014530D9F04091E80042FFE7CF0E
:100C80005091F3004091F200452BE1F2FC0180917C
:100C9000F100819321503109CF0191F7D3CF809199
:100CA000A601882341F08091A601853099F683E062
:100CB000089581E0089582E0089571D078D010926F
:100CC000A6011092A4011092A3011092A2018AE43D
:100CD00082BF80E189BD89B5826089BD09B400FE0B
:100CE000FDCF8091D800982F9F779093D80080688F
:100CF0008093D8008091D70081608093D700809145
:100D0000D8008F7D8093D8008091E0008B7F809306
:100D1000E0008091E0008E7F8093E0008091E10010
:100D20008E7F8093E1008091E20081608093E200F9
:100D30008091E100877F8093E1008091E2008860EC
:100D40008093E2008091D80081608093D80008955C
:100D5000B4DFE8EDF0E080818061808381E0809302
:100D6000A5010895CF93DF93A8DFE0EEF0E0808146
:100D700081608083C8EDD0E088818F7788830FD031
:100D800016D019BCE7EDF0E080818E7F80838881EA
:100D90008F7E88831092A501DF91CF910895E8EDB1
:100DA000F0E080818E7F80831092E200089510929F
:100DB000DA001092E10008951F920F920FB60F9281
:100DC00011242F933F934F935F936F937F938F9350
:100DD0009F93AF93BF93EF93FF938091DA0080FFCF
:100DE00011C08091D80080FF0DC08091DA008E7F05
:100DF0008093DA008091D90080FF97C081E08093D2
:100E0000A601B8DC8091E10080FF1DC08091E20066
:100E100080FF19C08091E1008E7F8093E100809176
:100E2000E2008E7F8093E2008091E20080618093F7
:100E3000E2008091D80080628093D80019BC85E0E0
:100E40008093A60178D08091E10084FF28C0809132
:100E5000E20084FF24C080E189BD89B5826089BD3C
:100E600009B400FEFDCF8091D8008F7D8093D8001B
:100E70008091E1008F7E8093E1008091E2008F7E7F
:100E80008093E2008091E20081608093E200809193
:100E9000A40181114EC083E08093A6014CD08091C3
:100EA000E10083FF23C08091E20083FF1FC0809197
:100EB000E100877F8093E10082E08093A601109299
:100EC000A4018091E1008E7F8093E1008091E20097
:100ED0008E7F8093E2008091E20080618093E20047
:100EE0008FDD42E060E080E078DD25D08091E10098
:100EF00082FF0AC08091E20082FF06C08091E1007B
:100F00008B7F8093E10017D0FF91EF91BF91AF915C
:100F10009F918F917F916F915F914F913F912F9111
:100F20000F900FBE0F901F9018951092A6012BDC0A
:100F300069CF84E0B1CF0895CF938091A601882333
:100F400059F0C091E900C7701092E9008091E80063
:100F500083FD36DCC093E900CF910895F89498E0C2
:100F600035E3232F2A95F1F787FF0BC0519850984E
:100F7000232F2A95F1F7509A880F915091F7789482
:100F80000895519AF4CFCF93F89485E38A95F1F7B9
:100F900051985098C5E38C2F8A95F1F72CD3489B34
:100FA000FACF89B1CA95F1F7509A789486958170F5
:100FB000CF9108955198509859985898109241019E
:100FC00008950895282F862FF89495E3392F3A95A0
:100FD000F1F730914101332339F05198392F3A9587
:100FE000F1F750989A95F1F7519A95E39A95F1F7A0
:100FF000509A91E0909341012E7F822BAFDFC3DFA7
:10100000982F81E0911180E00895F89485E3982F5E
:101010009A95F1F7509A519A982F9A95F1F750981E
:101020008A95F1F751981092410178948FE99FE0E9
:101030000197F1F700C00000089561E080E0C2DF91
:10104000E4CF1F93CF93DF93162FF89420E0112362
:1010500011F0222339F0789481E08227DF91CF913B
:101060001F910895EC01899179DF8DDF21E08111D5
:1010700001C020E01150CE01EACFCF92DF92EF9273
:10108000FF920F931F93CF93DF93182F092FC62F33
:10109000F42EF89495E3E92EC1110BC0789481E009
:1010A000DF91CF911F910F91FF90EF90DF90CF9044
:1010B0000895CC24C394C23008F4CF2C88E0D82EF5
:1010C000D0E061DFDD0FD82BDA94D110FACFE12F19
:1010D000F02FD1938E2D8A95F1F7CC2071F0519A93
:1010E0008E2D8A95F1F750988E2D8A95F1F7509AAA
:1010F0005198C1501E2F0F2FCFCF5198F1CF81E0C3
:10110000809343010895CF93DF93FC016130710513
:1011100021F48081CFEF833719F080E01FC0C82F02
:10112000DC2FD1706D2F8C2F4DDF882389F08C2F11
:1011300027D788E21BD78C2F869522D780E216D737
:1011400082E5D11101C087E511D789E20FD722D7F7
:1011500074DF8FEF8C0FC111E2CF81E0DF91CF916F
:101160000895CF93DF930F92CDB7DEB780914301FF
:10117000823039F08430E9F060DF85E0809343010C
:1011800014C080914201682F61701CDF811106C07C
:1011900054DF84E192E0F9D685E004C080E092E07B
:1011A000F4D684E080934301F5D60F90DF91CF9180
:1011B000089585EF91E0E9D641E061E0CE01019626
:1011C0005CDF882319F0898199D6EECF36DF82EF74
:1011D00091E0E1CFCF93C82F80914301823061F03D
:1011E000833071F1813009F044C0C093420182E044
:1011F00080934301CF9108958EED91E0C6D6CAD673
:1012000082ED91E0C2D680914201BAD687EC91E09E
:10121000BCD680914201682F6170D4DE811106C076
:101220000CDF84EC91E0B1D685E006C080EC91E063
:10123000ACD6C093420183E080934301CF91AAC60C
:1012400084EB91E0A2D6809142019AD689EA91E09E
:101250009CD661E082E491E0F4DE882331F085EAF7
:1012600091E093D6C0934201E9CFE7DE82EA91E0B4
:10127000DACFE3DE85E0BCCFCF93DF930F92CDB71B
:10128000DEB7809143018330F1F0843009F435C03A
:10129000823081F480914201682F617093DE811168
:1012A0000FC08DE991E071D675D6AFDE87E891E089
:1012B0006CD670D6109243010F90DF91CF910895B4
:1012C0008AE991E0F0CF8BE791E05FD6809142010F
:1012D00057D680E791E059D661E082E491E0B1DE33
:1012E000882341F08CE691E050D654D68EDE86E518
:1012F00091E0DECF89E691E0F7CF8BE491E045D62F
:1013000040E061E0CE010196B8DE882339F08981A2
:10131000F5D540D67ADE85E391E0CACF88E491E046
:1013200034D6F7CF4ECE8CE291E02FD633D6109242
:10133000430140DE82CE84B1876084B9289A2B9A1B
:1013400083E58CBD8DB58EB508958CB58F7B8CBD36
:1013500008958EBD0DB407FEFDCF8EB5089580E0D3
:101360000895CF93DF93C82FF4DFD82F86E492E05F
:101370000CD68C2FC3D50ED68FE392E006D68D2FD8
:10138000BDD5DF91CF9106C6CF938FEFE2DFC82F97
:1013900088E392E0FAD58C2FB1D5CF91FBC5289A7E
:1013A00084E292E0F2D5F6C5289889E192E0EDD585
:1013B000F1C5CF93C82FCDDF80E392E0E6D58C2F27
:1013C000DAD5CF91E7C5C1CFB6CF15D1C9D983D270
:1013D000EAD15BC121D001D1DBD154D10AD227D2CD
:1013E00026D225D286E792E066D221D283E592E02A
:1013F00062D21DD281E592E05ED219D218D28EE47B
:1014000092E059D285E02FD181E098D990E080E038
:1014100056D57894DADFFECF80E890E00FB6F894E6
:1014200080936100909361000FBE089588E198E079
:101430000FB6F894A895809360000FBE909360005B
:10144000FFCFBF92CF92DF92EF92FF920F931F9345
:10145000CF93DF9300D000D000D0CDB7DEB7B62E4B
:101460008A01DA011D921D921D921C9213977C0134
:10147000C12C2AE0D22ECB1011C081E026960FB6E7
:10148000F894DEBF0FBECDBFDF91CF911F910F91BA
:10149000FF90EF90DF90CF90BF900895D701ED912E
:1014A0007D01D8012D913D914D915C912115310522
:1014B00041055105E1F4B1E0BC15C8F0E23631F464
:1014C000BB1699F092E0D92EC394D5CFC11008C0B5
:1014D000E83669F4E1E0BE1641F080E1D82EF4CFA1
:1014E000E83729F4F2E0FB15C0F380E0C7CF97E5B9
:1014F000E13638F497E3E13420F490E0EA3308F47D
:1015000090E3E91BED1588F7AD2DB0E097D5698321
:101510007A838B839C83DC01CB018E0F911DA11DEF
:10152000B11DF80180839183A283B383CDCFCF9384
:10153000DF93DC01EB01CA01ED91FC911197E817F3
:10154000F90711F4FC0105C02081203259F029303F
:1015500049F0F983E883E881F981E817F90739F45C
:10156000FC0108C031961196FC93EE93E5CF2081E3
:10157000203251F481E02D913C912E173F0709F460
:1015800080E0DF91CF9108952930A1F33196E1CF2A
:10159000EF92FF920F931F93CF93DF93EC018B0198
:1015A0007901C5DF811108C080E0DF91CF911F91E3
:1015B0000F91FF90EF90089588819981F8016081E3
:1015C0007181681B790BA7013CDF882369F3F8015F
:1015D0002081318139832883E8CF84B7886084BF34
:1015E00088E199E00FB6F894A895809360000FBE4B
:1015F000909360000895A89508958093160108952A
:1016000010924A012091500130915101F9016491E9
:1016100080914F01F3E08F9FD0011124FD0131969D
:10162000E20FF31F449150E0509345014093440171
:10163000FD013296E20FF31F449150E050934901AF
:1016400040934801FD013396E20FF31FE491F0E06F
:10165000F0934701E093460190E0019670E0B3D427
:1016600080934F010895E82FF0E0EE0FFF1FE85838
:10167000FD4F859194919093510180935001109268
:101680004F01BECF80E0EFDFBBCFCF93DF9300D021
:1016900000D0CDB7DEB769837A838B839C8380913A
:1016A0004B0190914C01A0914D01B0914E012981C7
:1016B0003A814B815C8182179307A407B507D0F468
:1016C00020914A0130E06091440170914501261754
:1016D0003707B8F095DF67D0DC01CB018C509F4F06
:1016E000AF4FBF4F80934B0190934C01A0934D019E
:1016F000B0934E010F900F900F900F90DF91CF910C
:101700000895FB01E21BF30B409148015091490100
:10171000E49FC001E59F900DF49F900D1124E0918E
:101720004601F09147012E9FA0012F9F500D3E9F33
:10173000500D1124840F951F32D4862F5EDF8091C7
:101740004A018F5F80934A01C6CF1F921FB61F9236
:1017500011248F939F93AF93BF93809152019091E7
:101760005301A0915401B09155010196A11DB11DE5
:101770008093520190935301A0935401B09355016B
:10178000BF91AF919F918F911F901FBE1F90189591
:1017900085B5816085BDA89A16BCEEE6F0E0808133
:1017A000816080830895CF93DF9300D000D0CDB7C0
:1017B000DEB78091520190915301A0915401B091F4
:1017C0005501BC01CD010F900F900F900F90DF914C
:1017D000CF91089580939B01882319F0813031F0D7
:1017E000089510929A01109259010895109257018C
:1017F000089580E0EFCF80919B01811105C0809119
:10180000590191E08927089581E0089590939D0101
:1018100080939C01089590915801911107C0E09127
:101820009C01F0919D01309709F0099408958DE095
:10183000F2DF8AE0F0CFCF93C82F80919B018823FD
:1018400041F0813021F480935701C0935601CF912C
:101850000895809159018111FACFCD3091F0809196
:101860009A01CF3711F0C83089F4882381F3815071
:1018700080939A0188E0CFDF80E2CDDF88E0CF91CE
:10188000CACF81E080935901CF91D1CF8F3388F4B3
:1018900080911701882311F08C2FBDDFE0919A0110
:1018A00081E08E0F80939A01F0E0E65AFE4FC083EC
:1018B000CECF87E0E4CFCF93DF93EC01CE01FE01E2
:1018C0002491211103C0DF91CF9108952196FC014D
:1018D0008491A1DFF3CF80919B01811113C080918E
:1018E0005901882379F060919A01662321F070E014
:1018F0008AE591E0F2D110929A0183EC92E0DBDF6D
:10190000109259010895CF93C82F82958F70C03AD5
:1019100048F4805D80DF8C2F8F708A3028F4805DE2
:10192000CF9179CF895CF6CF895CFACFCF93C82F5E
:1019300080E371DF88E76FDF8C2FCF91E4CF8F9248
:101940009F92AF92BF92CF92DF92EF92FF921F933E
:10195000CF93DF9300D000D000D0CDB7DEB769833E
:101960007A838B839C8389E090E09E838D8311E052
:10197000C12C8AECD82E8AE9E82E8BE3F82E9AE067
:10198000892E912CA12CB12C89819A81AB81BC81AB
:101990008C159D05AE05BF0510F411110EC06981AF
:1019A0007A818B819C81A701960120D380E32A3024
:1019B00008F087E3820F2FDF10E069817A818B8145
:1019C0009C81A701960112D369837A838B839C83C0
:1019D000C701B601A501940109D369017A01AD815E
:1019E000BE811197BE83AD83AB2B71F6B9818B2F6E
:1019F000805DBA3010F08981895C26960FB6F89424
:101A0000DEBF0FBECDBFDF91CF911F91FF90EF9052
:101A1000DF90CF90BF90AF909F908F90FCCECF93F0
:101A2000C82F82E6F8DE81E3C7FF80E3F4DE81E3BE
:101A3000C6FF80E3F0DE81E3C5FF80E3ECDE81E3F7
:101A4000C4FF80E3E8DE81E3C3FF80E3E4DE81E3FB
:101A5000C2FF80E3E0DE81E3C1FF80E3DCDE81E3FF
:101A6000C0FF80E3CF91D7CE5F926F927F928F922B
:101A70009F92AF92BF92CF92DF92EF92FF920F931D
:101A80001F93CF93DF93CDB7DEB72C970FB6F894A3
:101A9000DEBF0FBECDBF8C015B01542E722E632EB4
:101AA00081E090E0A0E0B0E08D839E83AF83B887B3
:101AB00078016701AE14BF0469F57601E01AF10AF6
:101AC000AE01475F5F4F6E2DC801BBDC882309F470
:101AD00086C0E091A001F091A1013097C1F58CEC96
:101AE00092E0E9DEA4DE80E02C960FB6F894DEBF2B
:101AF0000FBECDBFDF91CF911F910F91FF90EF905F
:101B0000DF90CF90BF90AF909F908F907F906F901D
:101B10005F9008958FEFE81AF80AF60180818A3302
:101B200041F6C601801B910B181619060CF0C1CFA7
:101B3000AE014B5F5F4FB5016E197F09C70181DCB4
:101B40008111BBCF1D821E821F821886B2CF809169
:101B50009E01882311F184859585892B09F4BFCFD7
:101B60008D819E81AF81B885AC01BD014150510985
:101B7000610971094D835E836F837887892B8A2B76
:101B80008B2B09F4B0CFE091A001F091A101048466
:101B9000F585E02D89850995E3CF80859185892B91
:101BA00009F49DCF8D819E81AF81B885AC01BD01C7
:101BB00041505109610971094D835E836F837887B4
:101BC000892B8A2B8B2B09F48ECFE091A001F09109
:101BD000A1010084F185E02D89850995E3CFF1E02D
:101BE000EF16F10469F5F80180818F7D823541F5AA
:101BF000E091A001F091A101309709F470CF8285A6
:101C00009385892B09F46BCF8D819E81AF81B88537
:101C1000AC01BD0141505109610971094D835E83D9
:101C20006F837887892B8A2B8B2B09F45CCFE0910B
:101C3000A001F091A1010284F385E02D0995E4CF84
:101C4000552081F044E050E065EE72E0CE0101964F
:101C50001BD285EE882E82E0982EA980BA80A1142E
:101C6000B104C1F4E091A001F091A101309709F411
:101C700036CF0684F785E02D309709F430CF2D81DB
:101C80003E814F815885B701C8010995882309F421
:101C900026CF29CFA701B501C801E9D1892B99F435
:101CA000C501FBD1E816F90670F0EB81FC81672DC8
:101CB000762DC6010995811117CF86EC92E0FBDDE8
:101CC000B6DD852D11CFF4E08F0E911C44E050E07D
:101CD000B401CE010196D8D1C0CFCF92DF92EF925E
:101CE000FF920F931F93CF93DF93EC017C01E60EDD
:101CF000F71ED82E0D2F41E010E0CC24C394CE1552
:101D0000DF0581F4113009F056C09E01BE018D2D12
:101D1000902FDF91CF911F910F91FF90EF90DF9067
:101D2000CF90A2CE98811130A1F19B3521F180F4A2
:101D3000933209F440C040F4993041F0903231F0D0
:101D4000DC2E0D2F11E002C09C32D1F72196D7CFA7
:101D50009B3779F09F7D9D3599F710929E01E09118
:101D6000A001F091A101309791F00680F781E02D5C
:101D70000BC0C0929E01E091A001F091A1013097AB
:101D800031F00480F581E02D309709F0099540E0AD
:101D9000DDCF9B3541F0E0F4933229F0A8F499307F
:101DA00011F0903299F69701BE018D2D902F5CDED7
:101DB000482F8823A1F0DF91CF911F910F91FF90C1
:101DC000EF90DF90CF9008959C3209F0BFCFEBCF1A
:101DD0009B3749F39F7D9D3509F0B8CFE4CF10E0E4
:101DE0008ECF89E191E06BD081E0089589E291E0A6
:101DF00066D081E008951ADB81E008951F93CF93A8
:101E0000DF93CDB7DEB728970FB6F894DEBF0FBECD
:101E1000CDBF98878F83AB019E012F5F3F4FBE01DF
:101E20006B5F7F4FCE010796B3DB182F882351F0ED
:101E300089819A81AB81BC8187309105A105B1056B
:101E400060F411DC812F28960FB6F894DEBF0FBE28
:101E5000CDBFDF91CF911F91089510E0F3CF0F9385
:101E60001F93CF93DF9300D000D0CDB7DEB744E00F
:101E700050E065EE72E0CE01019606D105EE12E06B
:101E800089819A81009751F481E00F900F900F9013
:101E90000F90DF91CF911F910F9108950CDDC7DC5A
:101EA0000C5F1F4F44E050E0B801CE010196ECD02A
:101EB000E7CF83ED92E0FFDCBADC81E00895CF93B9
:101EC000DF93EC01E091A001F091A101309731F096
:101ED0000280F381E02D309709F00995D093A1019C
:101EE000C093A001209739F0E881F981309719F06B
:101EF000DF91CF910994DF91CF910895CF93DF9334
:101F000000D000D0CDB7DEB790919F019230B9F0EC
:101F100020F4911112C00ADD04C0933091F0943086
:101F2000E1F08091180181111AC080E20F900F90AA
:101F30000F900F90DF91CF916ECC6DDCF2CF6FDD03
:101F4000F0CF282F30E050E040E029833A834B83E4
:101F50005C83CA01B901F3DCE4CFD5DCE2CF0F909A
:101F60000F900F900F90DF91CF91089590911801ED
:101F7000911151CC0895909118019111C4CC0895FC
:101F8000909118019111D2CC08952091180121113E
:101F900092CC089580911801811149CC0895AA1B13
:101FA000BB1B51E107C0AA1FBB1FA617B70710F044
:101FB000A61BB70B881F991F5A95A9F78095909576
:101FC000BC01CD01089597FB072E16F4009406D0AE
:101FD00077FD08D0E4DF07FC05D03EF490958195AD
:101FE0009F4F0895709561957F4F0895A1E21A2E35
:101FF000AA1BBB1BFD010DC0AA1FBB1FEE1FFF1FAD
:10200000A217B307E407F50720F0A21BB30BE40BFC
:10201000F50B661F771F881F991F1A9469F7609543
:102020007095809590959B01AC01BD01CF010895FD
:10203000EE0FFF1F0590F491E02D099409D0A59FA4
:10204000900DB49F900DA49F800D911D11240895B3
:10205000A29FB001B39FC001A39F700D811D1124E9
:10206000911DB29F700D811D1124911D0895FB01DA
:10207000DC0104C08D910590801921F4415050403D
:10208000C8F7881B990B0895FB01DC0102C005907D
:102090000D9241505040D8F70895FC010590002062
:1020A000E9F7809590958E0F9F1F0895F894FFCFC4
:1020B000FE032304C9042304C90453048404C9048B
:0420C000A304AF04C2
:1020C40000021000000310000001080000000000DE
:1020D400000000000000FF0101930992097F083C01
:1020E40009EA08B10800008308E409E309D409CF28
:0A20F40009D909C409B109AF0900B8
:00000001FF
